{
    "_format": "hh-sol-artifact-1",
    "contractName": "TodoList",
    "sourceName": "contracts/TodoList.sol",
    "abi": [
        {
            "inputs": [
                {
                    "internalType": "string",
                    "name": "text",
                    "type": "string"
                }
            ],
            "name": "createTodo",
            "outputs": [],
            "stateMutability": "nonpayable",
            "type": "function"
        },
        {
            "inputs": [],
            "name": "getTodos",
            "outputs": [
                {
                    "components": [
                        {
                            "internalType": "uint256",
                            "name": "id",
                            "type": "uint256"
                        },
                        {
                            "internalType": "string",
                            "name": "text",
                            "type": "string"
                        },
                        {
                            "internalType": "bool",
                            "name": "completed",
                            "type": "bool"
                        }
                    ],
                    "internalType": "struct TodoList.Todo[]",
                    "name": "",
                    "type": "tuple[]"
                }
            ],
            "stateMutability": "view",
            "type": "function"
        },
        {
            "inputs": [],
            "name": "nextId",
            "outputs": [
                {
                    "internalType": "uint256",
                    "name": "",
                    "type": "uint256"
                }
            ],
            "stateMutability": "view",
            "type": "function"
        },
        {
            "inputs": [
                {
                    "internalType": "uint256",
                    "name": "",
                    "type": "uint256"
                }
            ],
            "name": "todos",
            "outputs": [
                {
                    "internalType": "uint256",
                    "name": "id",
                    "type": "uint256"
                },
                {
                    "internalType": "string",
                    "name": "text",
                    "type": "string"
                },
                {
                    "internalType": "bool",
                    "name": "completed",
                    "type": "bool"
                }
            ],
            "stateMutability": "view",
            "type": "function"
        },
        {
            "inputs": [
                {
                    "internalType": "uint256",
                    "name": "id",
                    "type": "uint256"
                }
            ],
            "name": "toggleTodoCompleted",
            "outputs": [],
            "stateMutability": "nonpayable",
            "type": "function"
        }
    ],
    "bytecode": "0x608060405234801561001057600080fd5b50610a2a806100206000396000f3fe608060405234801561001057600080fd5b50600436106100575760003560e01c806361b8ce8c1461005c578063a8cb57051461007a578063bc8bc2b414610096578063c33926cb146100c8578063e34f1221146100e6575b600080fd5b610064610102565b604051610071919061074c565b60405180910390f35b610094600480360381019061008f919061057a565b610108565b005b6100b060048036038101906100ab919061057a565b610185565b6040516100bf93929190610767565b60405180910390f35b6100d0610254565b6040516100dd919061072a565b60405180910390f35b61010060048036038101906100fb9190610539565b61036a565b005b60015481565b6000808281548110610143577f4e487b7100000000000000000000000000000000000000000000000000000000600052603260045260246000fd5b906000526020600020906003020190508060020160009054906101000a900460ff16158160020160006101000a81548160ff0219169083151502179055505050565b6000818154811061019557600080fd5b90600052602060002090600302016000915090508060000154908060010180546101be906108c4565b80601f01602080910402602001604051908101604052809291908181526020018280546101ea906108c4565b80156102375780601f1061020c57610100808354040283529160200191610237565b820191906000526020600020905b81548152906001019060200180831161021a57829003601f168201915b5050505050908060020160009054906101000a900460ff16905083565b60606000805480602002602001604051908101604052809291908181526020016000905b828210156103615783829060005260206000209060030201604051806060016040529081600082015481526020016001820180546102b5906108c4565b80601f01602080910402602001604051908101604052809291908181526020018280546102e1906108c4565b801561032e5780601f106103035761010080835404028352916020019161032e565b820191906000526020600020905b81548152906001019060200180831161031157829003601f168201915b505050505081526020016002820160009054906101000a900460ff16151515158152505081526020019060010190610278565b50505050905090565b6000604051806060016040528060015481526020018381526020016000151581525090806001815401808255809150506001900390600052602060002090600302016000909190919091506000820151816000015560208201518160010190805190602001906103db929190610419565b5060408201518160020160006101000a81548160ff021916908315150217905550505060016000815480929190610411906108f6565b919050555050565b828054610425906108c4565b90600052602060002090601f016020900481019282610447576000855561048e565b82601f1061046057805160ff191683800117855561048e565b8280016001018555821561048e579182015b8281111561048d578251825591602001919060010190610472565b5b50905061049b919061049f565b5090565b5b808211156104b85760008160009055506001016104a0565b5090565b60006104cf6104ca846107d6565b6107a5565b9050828152602081018484840111156104e757600080fd5b6104f2848285610882565b509392505050565b600082601f83011261050b57600080fd5b813561051b8482602086016104bc565b91505092915050565b600081359050610533816109dd565b92915050565b60006020828403121561054b57600080fd5b600082013567ffffffffffffffff81111561056557600080fd5b610571848285016104fa565b91505092915050565b60006020828403121561058c57600080fd5b600061059a84828501610524565b91505092915050565b60006105af83836106bc565b905092915050565b60006105c282610816565b6105cc8185610839565b9350836020820285016105de85610806565b8060005b8581101561061a57848403895281516105fb85826105a3565b94506106068361082c565b925060208a019950506001810190506105e2565b50829750879550505050505092915050565b6106358161086c565b82525050565b6106448161086c565b82525050565b600061065582610821565b61065f818561084a565b935061066f818560208601610891565b610678816109cc565b840191505092915050565b600061068e82610821565b610698818561085b565b93506106a8818560208601610891565b6106b1816109cc565b840191505092915050565b60006060830160008301516106d4600086018261070c565b50602083015184820360208601526106ec828261064a565b9150506040830151610701604086018261062c565b508091505092915050565b61071581610878565b82525050565b61072481610878565b82525050565b6000602082019050818103600083015261074481846105b7565b905092915050565b6000602082019050610761600083018461071b565b92915050565b600060608201905061077c600083018661071b565b818103602083015261078e8185610683565b905061079d604083018461063b565b949350505050565b6000604051905081810181811067ffffffffffffffff821117156107cc576107cb61099d565b5b8060405250919050565b600067ffffffffffffffff8211156107f1576107f061099d565b5b601f19601f8301169050602081019050919050565b6000819050602082019050919050565b600081519050919050565b600081519050919050565b6000602082019050919050565b600082825260208201905092915050565b600082825260208201905092915050565b600082825260208201905092915050565b60008115159050919050565b6000819050919050565b82818337600083830152505050565b60005b838110156108af578082015181840152602081019050610894565b838111156108be576000848401525b50505050565b600060028204905060018216806108dc57607f821691505b602082108114156108f0576108ef61096e565b5b50919050565b600061090182610878565b91507fffffffffffffffffffffffffffffffffffffffffffffffffffffffffffffffff8214156109345761093361093f565b5b600182019050919050565b7f4e487b7100000000000000000000000000000000000000000000000000000000600052601160045260246000fd5b7f4e487b7100000000000000000000000000000000000000000000000000000000600052602260045260246000fd5b7f4e487b7100000000000000000000000000000000000000000000000000000000600052604160045260246000fd5b6000601f19601f8301169050919050565b6109e681610878565b81146109f157600080fd5b5056fea2646970667358221220b7bff7107fab7810ee523791febc3a598843f164ed5c961008afa4ddf94c2f6f64736f6c63430008000033",
    "linkReferences": {},
    "deployedLinkReferences": {}
}